{
  "_format": "hh-sol-artifact-1",
  "contractName": "GameItemStaking",
  "sourceName": "src/GameItemStaking.sol",
  "abi": [
    {
      "inputs": [
        {
          "internalType": "contract GameItemNFT",
          "name": "_gameItemNFT",
          "type": "address"
        },
        {
          "internalType": "contract IGameRewardToken",
          "name": "_rewardToken",
          "type": "address"
        },
        {
          "internalType": "uint256",
          "name": "_rewardRatePerSecond",
          "type": "uint256"
        }
      ],
      "stateMutability": "nonpayable",
      "type": "constructor"
    },
    {
      "inputs": [],
      "name": "EmptyTokenIds",
      "type": "error"
    },
    {
      "inputs": [],
      "name": "EnforcedPause",
      "type": "error"
    },
    {
      "inputs": [],
      "name": "ExpectedPause",
      "type": "error"
    },
    {
      "inputs": [],
      "name": "InvalidNFTContract",
      "type": "error"
    },
    {
      "inputs": [],
      "name": "NoRewardsToClaim",
      "type": "error"
    },
    {
      "inputs": [
        {
          "internalType": "uint256",
          "name": "tokenId",
          "type": "uint256"
        }
      ],
      "name": "NotStakeOwner",
      "type": "error"
    },
    {
      "inputs": [
        {
          "internalType": "uint256",
          "name": "tokenId",
          "type": "uint256"
        }
      ],
      "name": "NotTokenOwner",
      "type": "error"
    },
    {
      "inputs": [
        {
          "internalType": "address",
          "name": "owner",
          "type": "address"
        }
      ],
      "name": "OwnableInvalidOwner",
      "type": "error"
    },
    {
      "inputs": [
        {
          "internalType": "address",
          "name": "account",
          "type": "address"
        }
      ],
      "name": "OwnableUnauthorizedAccount",
      "type": "error"
    },
    {
      "inputs": [],
      "name": "ReentrancyGuardReentrantCall",
      "type": "error"
    },
    {
      "inputs": [],
      "name": "ZeroRewardRate",
      "type": "error"
    },
    {
      "anonymous": false,
      "inputs": [
        {
          "indexed": true,
          "internalType": "address",
          "name": "previousOwner",
          "type": "address"
        },
        {
          "indexed": true,
          "internalType": "address",
          "name": "newOwner",
          "type": "address"
        }
      ],
      "name": "OwnershipTransferred",
      "type": "event"
    },
    {
      "anonymous": false,
      "inputs": [
        {
          "indexed": false,
          "internalType": "address",
          "name": "account",
          "type": "address"
        }
      ],
      "name": "Paused",
      "type": "event"
    },
    {
      "anonymous": false,
      "inputs": [
        {
          "indexed": false,
          "internalType": "uint256",
          "name": "oldRate",
          "type": "uint256"
        },
        {
          "indexed": false,
          "internalType": "uint256",
          "name": "newRate",
          "type": "uint256"
        }
      ],
      "name": "RewardRateUpdated",
      "type": "event"
    },
    {
      "anonymous": false,
      "inputs": [
        {
          "indexed": true,
          "internalType": "address",
          "name": "user",
          "type": "address"
        },
        {
          "indexed": false,
          "internalType": "uint256",
          "name": "amount",
          "type": "uint256"
        }
      ],
      "name": "RewardsClaimed",
      "type": "event"
    },
    {
      "anonymous": false,
      "inputs": [
        {
          "indexed": true,
          "internalType": "address",
          "name": "user",
          "type": "address"
        },
        {
          "indexed": true,
          "internalType": "uint256",
          "name": "tokenId",
          "type": "uint256"
        }
      ],
      "name": "Staked",
      "type": "event"
    },
    {
      "anonymous": false,
      "inputs": [
        {
          "indexed": false,
          "internalType": "address",
          "name": "account",
          "type": "address"
        }
      ],
      "name": "Unpaused",
      "type": "event"
    },
    {
      "anonymous": false,
      "inputs": [
        {
          "indexed": true,
          "internalType": "address",
          "name": "user",
          "type": "address"
        },
        {
          "indexed": true,
          "internalType": "uint256",
          "name": "tokenId",
          "type": "uint256"
        }
      ],
      "name": "Unstaked",
      "type": "event"
    },
    {
      "inputs": [],
      "name": "COMMON_MULTIPLIER",
      "outputs": [
        {
          "internalType": "uint256",
          "name": "",
          "type": "uint256"
        }
      ],
      "stateMutability": "view",
      "type": "function"
    },
    {
      "inputs": [],
      "name": "EPIC_MULTIPLIER",
      "outputs": [
        {
          "internalType": "uint256",
          "name": "",
          "type": "uint256"
        }
      ],
      "stateMutability": "view",
      "type": "function"
    },
    {
      "inputs": [],
      "name": "LEGENDARY_MULTIPLIER",
      "outputs": [
        {
          "internalType": "uint256",
          "name": "",
          "type": "uint256"
        }
      ],
      "stateMutability": "view",
      "type": "function"
    },
    {
      "inputs": [],
      "name": "RARE_MULTIPLIER",
      "outputs": [
        {
          "internalType": "uint256",
          "name": "",
          "type": "uint256"
        }
      ],
      "stateMutability": "view",
      "type": "function"
    },
    {
      "inputs": [],
      "name": "claim",
      "outputs": [],
      "stateMutability": "nonpayable",
      "type": "function"
    },
    {
      "inputs": [],
      "name": "gameItemNFT",
      "outputs": [
        {
          "internalType": "contract GameItemNFT",
          "name": "",
          "type": "address"
        }
      ],
      "stateMutability": "view",
      "type": "function"
    },
    {
      "inputs": [
        {
          "internalType": "address",
          "name": "user",
          "type": "address"
        }
      ],
      "name": "lastUpdateTime",
      "outputs": [
        {
          "internalType": "uint256",
          "name": "",
          "type": "uint256"
        }
      ],
      "stateMutability": "view",
      "type": "function"
    },
    {
      "inputs": [
        {
          "internalType": "address",
          "name": "",
          "type": "address"
        },
        {
          "internalType": "address",
          "name": "",
          "type": "address"
        },
        {
          "internalType": "uint256",
          "name": "",
          "type": "uint256"
        },
        {
          "internalType": "bytes",
          "name": "",
          "type": "bytes"
        }
      ],
      "name": "onERC721Received",
      "outputs": [
        {
          "internalType": "bytes4",
          "name": "",
          "type": "bytes4"
        }
      ],
      "stateMutability": "view",
      "type": "function"
    },
    {
      "inputs": [],
      "name": "owner",
      "outputs": [
        {
          "internalType": "address",
          "name": "",
          "type": "address"
        }
      ],
      "stateMutability": "view",
      "type": "function"
    },
    {
      "inputs": [],
      "name": "pause",
      "outputs": [],
      "stateMutability": "nonpayable",
      "type": "function"
    },
    {
      "inputs": [],
      "name": "paused",
      "outputs": [
        {
          "internalType": "bool",
          "name": "",
          "type": "bool"
        }
      ],
      "stateMutability": "view",
      "type": "function"
    },
    {
      "inputs": [
        {
          "internalType": "address",
          "name": "user",
          "type": "address"
        }
      ],
      "name": "pendingRewards",
      "outputs": [
        {
          "internalType": "uint256",
          "name": "",
          "type": "uint256"
        }
      ],
      "stateMutability": "view",
      "type": "function"
    },
    {
      "inputs": [],
      "name": "renounceOwnership",
      "outputs": [],
      "stateMutability": "nonpayable",
      "type": "function"
    },
    {
      "inputs": [],
      "name": "rewardRatePerSecond",
      "outputs": [
        {
          "internalType": "uint256",
          "name": "",
          "type": "uint256"
        }
      ],
      "stateMutability": "view",
      "type": "function"
    },
    {
      "inputs": [],
      "name": "rewardToken",
      "outputs": [
        {
          "internalType": "contract IGameRewardToken",
          "name": "",
          "type": "address"
        }
      ],
      "stateMutability": "view",
      "type": "function"
    },
    {
      "inputs": [
        {
          "internalType": "address",
          "name": "user",
          "type": "address"
        }
      ],
      "name": "rewardsAccrued",
      "outputs": [
        {
          "internalType": "uint256",
          "name": "",
          "type": "uint256"
        }
      ],
      "stateMutability": "view",
      "type": "function"
    },
    {
      "inputs": [
        {
          "internalType": "uint256",
          "name": "newRate",
          "type": "uint256"
        }
      ],
      "name": "setRewardRate",
      "outputs": [],
      "stateMutability": "nonpayable",
      "type": "function"
    },
    {
      "inputs": [
        {
          "internalType": "uint256[]",
          "name": "tokenIds",
          "type": "uint256[]"
        }
      ],
      "name": "stake",
      "outputs": [],
      "stateMutability": "nonpayable",
      "type": "function"
    },
    {
      "inputs": [
        {
          "internalType": "uint256",
          "name": "tokenId",
          "type": "uint256"
        }
      ],
      "name": "stakeOwner",
      "outputs": [
        {
          "internalType": "address",
          "name": "",
          "type": "address"
        }
      ],
      "stateMutability": "view",
      "type": "function"
    },
    {
      "inputs": [
        {
          "internalType": "address",
          "name": "user",
          "type": "address"
        }
      ],
      "name": "stakerBoostedBalance",
      "outputs": [
        {
          "internalType": "uint256",
          "name": "",
          "type": "uint256"
        }
      ],
      "stateMutability": "view",
      "type": "function"
    },
    {
      "inputs": [
        {
          "internalType": "address",
          "name": "newOwner",
          "type": "address"
        }
      ],
      "name": "transferOwnership",
      "outputs": [],
      "stateMutability": "nonpayable",
      "type": "function"
    },
    {
      "inputs": [],
      "name": "unpause",
      "outputs": [],
      "stateMutability": "nonpayable",
      "type": "function"
    },
    {
      "inputs": [
        {
          "internalType": "uint256[]",
          "name": "tokenIds",
          "type": "uint256[]"
        }
      ],
      "name": "unstake",
      "outputs": [],
      "stateMutability": "nonpayable",
      "type": "function"
    }
  ],
  "bytecode": "0x60c060405234801561001057600080fd5b5060405161122e38038061122e83398101604081905261002f916100e9565b6001600055338061005a57604051631e4fbdf760e01b81526000600482015260240160405180910390fd5b6100638161007f565b506001600160a01b03928316608052911660a05260025561012c565b600180546001600160a01b038381166001600160a01b0319831681179093556040519116919082907f8be0079c531659141344cd1fd0a4f28419497f9722a3daafe3b4186f6b6457e090600090a35050565b6001600160a01b03811681146100e657600080fd5b50565b6000806000606084860312156100fe57600080fd5b8351610109816100d1565b602085015190935061011a816100d1565b80925050604084015190509250925092565b60805160a0516110ac6101826000396000818161033a01526107df0152600081816102e4015281816103cb015281816104a9015281816105450152818161063e015281816109c40152610a6501526110ac6000f3fe608060405234801561001057600080fd5b506004361061014d5760003560e01c8063715018a6116100c3578063c6a0479d1161007c578063c6a0479d146102d6578063d2c74700146102df578063e449f34114610306578063f2fde38b14610319578063f4bf4dfe1461032c578063f7c618c11461033557600080fd5b8063715018a614610279578063742b1ae9146102815780637fb5ad381461028a5780638456cb59146102aa5780638da5cb5b146102b25780639e447fc6146102c357600080fd5b80633dbd46bd116101155780633dbd46bd146101e25780633f4ba83a146102235780634e71d92d1461022b57806358686744146102335780635c975abb146102535780635d773b2c1461027057600080fd5b80630f35f76e146101525780630fbf0a931461016e578063150b7a02146101835780632ce9aead146101af57806331d7a262146101cf575b600080fd5b61015b61271081565b6040519081526020015b60405180910390f35b61018161017c366004610e12565b61035c565b005b610196610191366004610e9c565b610631565b6040516001600160e01b03199091168152602001610165565b61015b6101bd366004610f3b565b60066020526000908152604090205481565b61015b6101dd366004610f3b565b61068e565b61020b6101f0366004610f5f565b6003602052600090815260409020546001600160a01b031681565b6040516001600160a01b039091168152602001610165565b61018161074b565b61018161075d565b61015b610241366004610f3b565b60046020526000908152604090205481565b600154600160a01b900460ff166040519015158152602001610165565b61015b60025481565b61018161087b565b61015b6188b881565b61015b610298366004610f3b565b60056020526000908152604090205481565b61018161088d565b6001546001600160a01b031661020b565b6101816102d1366004610f5f565b61089d565b61015b6155f081565b61020b7f000000000000000000000000000000000000000000000000000000000000000081565b610181610314366004610e12565b610907565b610181610327366004610f3b565b610b01565b61015b613a9881565b61020b7f000000000000000000000000000000000000000000000000000000000000000081565b610364610b3f565b61036c610b69565b600081900361038e57604051633b57df4360e21b815260040160405180910390fd5b61039733610b94565b60005b818110156106225760008383838181106103b6576103b6610f78565b905060200201359050336001600160a01b03167f00000000000000000000000000000000000000000000000000000000000000006001600160a01b0316636352211e836040518263ffffffff1660e01b815260040161041791815260200190565b602060405180830381865afa158015610434573d6000803e3d6000fd5b505050506040513d601f19601f820116820180604052508101906104589190610f8e565b6001600160a01b03161461048757604051630e35d34560e11b8152600481018290526024015b60405180910390fd5b604051632142170760e11b8152336004820152306024820152604481018290527f00000000000000000000000000000000000000000000000000000000000000006001600160a01b0316906342842e0e90606401600060405180830381600087803b1580156104f557600080fd5b505af1158015610509573d6000803e3d6000fd5b5050506000828152600360205260409081902080546001600160a01b0319163317905551634875869760e01b8152600481018390526105be91507f00000000000000000000000000000000000000000000000000000000000000006001600160a01b0316906348758697906024015b602060405180830381865afa158015610595573d6000803e3d6000fd5b505050506040513d601f19601f820116820180604052508101906105b99190610fab565b610c61565b33600090815260046020526040812080549091906105dd908490610fe2565b9091555050604051819033907f9e71bc8eea02a63969f509818f2dafb9254532904319f9dbda79b67bd34a5f3d90600090a3508061061a81610ffb565b91505061039a565b5061062d6001600055565b5050565b6000336001600160a01b037f0000000000000000000000000000000000000000000000000000000000000000161461067c5760405163f8af67e560e01b815260040160405180910390fd5b50630a85bd0160e11b95945050505050565b6001600160a01b03811660009081526006602052604081205481036106b557506000919050565b6001600160a01b0382166000908152600660205260408120546106d89042611014565b6001600160a01b038416600090815260046020526040812054600254929350909161271091906107089085611027565b6107129190611027565b61071c919061103e565b6001600160a01b038516600090815260056020526040902054909150610743908290610fe2565b949350505050565b610753610cd1565b61075b610cfe565b565b610765610b3f565b61076d610b69565b61077633610b94565b33600090815260056020526040812054908190036107a7576040516373380d9960e01b815260040160405180910390fd5b3360008181526005602052604080822091909155516340c10f1960e01b81526004810191909152602481018290526001600160a01b037f000000000000000000000000000000000000000000000000000000000000000016906340c10f1990604401600060405180830381600087803b15801561082357600080fd5b505af1158015610837573d6000803e3d6000fd5b50506040518381523392507ffc30cddea38e2bf4d6ea7d3f9ed3b6ad7f176419f4963bd81318067a4aee73fe915060200160405180910390a25061075b6001600055565b610883610cd1565b61075b6000610d53565b610895610cd1565b61075b610da5565b6108a5610cd1565b806000036108c6576040516307ced7af60e01b815260040160405180910390fd5b60025460408051918252602082018390527fc390a98ace15a7bb6bab611eedfdbb2685043b241a869420043cdfb23ccfee50910160405180910390a1600255565b61090f610b3f565b610917610b69565b600081900361093957604051633b57df4360e21b815260040160405180910390fd5b61094233610b94565b60005b8181101561062257600083838381811061096157610961610f78565b6020908102929092013560008181526003909352604090922054919250506001600160a01b031633146109aa5760405163cda6dd4760e01b81526004810182905260240161047e565b604051634875869760e01b8152600481018290526109fb907f00000000000000000000000000000000000000000000000000000000000000006001600160a01b031690634875869790602401610578565b3360009081526004602052604081208054909190610a1a908490611014565b90915550506000818152600360205260409081902080546001600160a01b031916905551632142170760e11b8152306004820152336024820152604481018290526001600160a01b037f000000000000000000000000000000000000000000000000000000000000000016906342842e0e90606401600060405180830381600087803b158015610aa957600080fd5b505af1158015610abd573d6000803e3d6000fd5b50506040518392503391507f0f5bb82176feb1b5e747e28471aa92156a04d9f3ab9f45f28e2d704232b93f7590600090a35080610af981610ffb565b915050610945565b610b09610cd1565b6001600160a01b038116610b3357604051631e4fbdf760e01b81526000600482015260240161047e565b610b3c81610d53565b50565b600260005403610b6257604051633ee5aeb560e01b815260040160405180910390fd5b6002600055565b600154600160a01b900460ff161561075b5760405163d93c066560e01b815260040160405180910390fd5b6001600160a01b03811660009081526006602052604090205415610c45576001600160a01b038116600090815260066020526040812054610bd59042611014565b6001600160a01b03831660009081526004602052604090205460025491925061271091610c029084611027565b610c0c9190611027565b610c16919061103e565b6001600160a01b03831660009081526005602052604081208054909190610c3e908490610fe2565b9091555050505b6001600160a01b03166000908152600660205260409020429055565b600080826003811115610c7657610c76611060565b03610c845750612710919050565b6001826003811115610c9857610c98611060565b03610ca65750613a98919050565b6002826003811115610cba57610cba611060565b03610cc857506155f0919050565b506188b8919050565b6001546001600160a01b0316331461075b5760405163118cdaa760e01b815233600482015260240161047e565b610d06610de8565b6001805460ff60a01b191690557f5db9ee0a495bf2e6ff9c91a7834c1ba4fdd244a5e8aa4e537bd38aeae4b073aa335b6040516001600160a01b03909116815260200160405180910390a1565b600180546001600160a01b038381166001600160a01b0319831681179093556040519116919082907f8be0079c531659141344cd1fd0a4f28419497f9722a3daafe3b4186f6b6457e090600090a35050565b610dad610b69565b6001805460ff60a01b1916600160a01b1790557f62e78cea01bee320cd4e420270b5ea74000d11b0c9f74754ebdbfc544b05a258610d363390565b600154600160a01b900460ff1661075b57604051638dfc202b60e01b815260040160405180910390fd5b60008060208385031215610e2557600080fd5b823567ffffffffffffffff80821115610e3d57600080fd5b818501915085601f830112610e5157600080fd5b813581811115610e6057600080fd5b8660208260051b8501011115610e7557600080fd5b60209290920196919550909350505050565b6001600160a01b0381168114610b3c57600080fd5b600080600080600060808688031215610eb457600080fd5b8535610ebf81610e87565b94506020860135610ecf81610e87565b935060408601359250606086013567ffffffffffffffff80821115610ef357600080fd5b818801915088601f830112610f0757600080fd5b813581811115610f1657600080fd5b896020828501011115610f2857600080fd5b9699959850939650602001949392505050565b600060208284031215610f4d57600080fd5b8135610f5881610e87565b9392505050565b600060208284031215610f7157600080fd5b5035919050565b634e487b7160e01b600052603260045260246000fd5b600060208284031215610fa057600080fd5b8151610f5881610e87565b600060208284031215610fbd57600080fd5b815160048110610f5857600080fd5b634e487b7160e01b600052601160045260246000fd5b80820180821115610ff557610ff5610fcc565b92915050565b60006001820161100d5761100d610fcc565b5060010190565b81810381811115610ff557610ff5610fcc565b8082028115828204841417610ff557610ff5610fcc565b60008261105b57634e487b7160e01b600052601260045260246000fd5b500490565b634e487b7160e01b600052602160045260246000fdfea26469706673582212200387c75a1a06a929d8b907661b7b81e910861aa1b2486896eda929ec3160998a64736f6c63430008140033",
  "linkReferences": {},
  "deployedLinkReferences": {}
}