{
  "_format": "hh-sol-artifact-1",
  "contractName": "GameItemNFT",
  "sourceName": "src/GameItemNFT.sol",
  "abi": [
    {
      "inputs": [],
      "stateMutability": "nonpayable",
      "type": "constructor"
    },
    {
      "inputs": [],
      "name": "ERC721EnumerableForbiddenBatchMint",
      "type": "error"
    },
    {
      "inputs": [
        {
          "internalType": "address",
          "name": "sender",
          "type": "address"
        },
        {
          "internalType": "uint256",
          "name": "tokenId",
          "type": "uint256"
        },
        {
          "internalType": "address",
          "name": "owner",
          "type": "address"
        }
      ],
      "name": "ERC721IncorrectOwner",
      "type": "error"
    },
    {
      "inputs": [
        {
          "internalType": "address",
          "name": "operator",
          "type": "address"
        },
        {
          "internalType": "uint256",
          "name": "tokenId",
          "type": "uint256"
        }
      ],
      "name": "ERC721InsufficientApproval",
      "type": "error"
    },
    {
      "inputs": [
        {
          "internalType": "address",
          "name": "approver",
          "type": "address"
        }
      ],
      "name": "ERC721InvalidApprover",
      "type": "error"
    },
    {
      "inputs": [
        {
          "internalType": "address",
          "name": "operator",
          "type": "address"
        }
      ],
      "name": "ERC721InvalidOperator",
      "type": "error"
    },
    {
      "inputs": [
        {
          "internalType": "address",
          "name": "owner",
          "type": "address"
        }
      ],
      "name": "ERC721InvalidOwner",
      "type": "error"
    },
    {
      "inputs": [
        {
          "internalType": "address",
          "name": "receiver",
          "type": "address"
        }
      ],
      "name": "ERC721InvalidReceiver",
      "type": "error"
    },
    {
      "inputs": [
        {
          "internalType": "address",
          "name": "sender",
          "type": "address"
        }
      ],
      "name": "ERC721InvalidSender",
      "type": "error"
    },
    {
      "inputs": [
        {
          "internalType": "uint256",
          "name": "tokenId",
          "type": "uint256"
        }
      ],
      "name": "ERC721NonexistentToken",
      "type": "error"
    },
    {
      "inputs": [
        {
          "internalType": "address",
          "name": "owner",
          "type": "address"
        },
        {
          "internalType": "uint256",
          "name": "index",
          "type": "uint256"
        }
      ],
      "name": "ERC721OutOfBoundsIndex",
      "type": "error"
    },
    {
      "inputs": [],
      "name": "EnforcedPause",
      "type": "error"
    },
    {
      "inputs": [],
      "name": "ExpectedPause",
      "type": "error"
    },
    {
      "inputs": [],
      "name": "MaxSupplyReached",
      "type": "error"
    },
    {
      "inputs": [
        {
          "internalType": "address",
          "name": "owner",
          "type": "address"
        }
      ],
      "name": "OwnableInvalidOwner",
      "type": "error"
    },
    {
      "inputs": [
        {
          "internalType": "address",
          "name": "account",
          "type": "address"
        }
      ],
      "name": "OwnableUnauthorizedAccount",
      "type": "error"
    },
    {
      "inputs": [
        {
          "internalType": "uint256",
          "name": "tokenId",
          "type": "uint256"
        }
      ],
      "name": "TokenDoesNotExist",
      "type": "error"
    },
    {
      "anonymous": false,
      "inputs": [
        {
          "indexed": true,
          "internalType": "address",
          "name": "owner",
          "type": "address"
        },
        {
          "indexed": true,
          "internalType": "address",
          "name": "approved",
          "type": "address"
        },
        {
          "indexed": true,
          "internalType": "uint256",
          "name": "tokenId",
          "type": "uint256"
        }
      ],
      "name": "Approval",
      "type": "event"
    },
    {
      "anonymous": false,
      "inputs": [
        {
          "indexed": true,
          "internalType": "address",
          "name": "owner",
          "type": "address"
        },
        {
          "indexed": true,
          "internalType": "address",
          "name": "operator",
          "type": "address"
        },
        {
          "indexed": false,
          "internalType": "bool",
          "name": "approved",
          "type": "bool"
        }
      ],
      "name": "ApprovalForAll",
      "type": "event"
    },
    {
      "anonymous": false,
      "inputs": [
        {
          "indexed": true,
          "internalType": "address",
          "name": "to",
          "type": "address"
        },
        {
          "indexed": true,
          "internalType": "uint256",
          "name": "tokenId",
          "type": "uint256"
        },
        {
          "indexed": false,
          "internalType": "enum GameItemNFT.Rarity",
          "name": "rarity",
          "type": "uint8"
        },
        {
          "indexed": false,
          "internalType": "uint32",
          "name": "power",
          "type": "uint32"
        },
        {
          "indexed": false,
          "internalType": "uint32",
          "name": "agility",
          "type": "uint32"
        }
      ],
      "name": "ItemMinted",
      "type": "event"
    },
    {
      "anonymous": false,
      "inputs": [
        {
          "indexed": true,
          "internalType": "address",
          "name": "previousOwner",
          "type": "address"
        },
        {
          "indexed": true,
          "internalType": "address",
          "name": "newOwner",
          "type": "address"
        }
      ],
      "name": "OwnershipTransferred",
      "type": "event"
    },
    {
      "anonymous": false,
      "inputs": [
        {
          "indexed": false,
          "internalType": "address",
          "name": "account",
          "type": "address"
        }
      ],
      "name": "Paused",
      "type": "event"
    },
    {
      "anonymous": false,
      "inputs": [
        {
          "indexed": true,
          "internalType": "address",
          "name": "from",
          "type": "address"
        },
        {
          "indexed": true,
          "internalType": "address",
          "name": "to",
          "type": "address"
        },
        {
          "indexed": true,
          "internalType": "uint256",
          "name": "tokenId",
          "type": "uint256"
        }
      ],
      "name": "Transfer",
      "type": "event"
    },
    {
      "anonymous": false,
      "inputs": [
        {
          "indexed": false,
          "internalType": "address",
          "name": "account",
          "type": "address"
        }
      ],
      "name": "Unpaused",
      "type": "event"
    },
    {
      "inputs": [],
      "name": "MAX_SUPPLY",
      "outputs": [
        {
          "internalType": "uint256",
          "name": "",
          "type": "uint256"
        }
      ],
      "stateMutability": "view",
      "type": "function"
    },
    {
      "inputs": [
        {
          "internalType": "address",
          "name": "to",
          "type": "address"
        },
        {
          "internalType": "uint256",
          "name": "tokenId",
          "type": "uint256"
        }
      ],
      "name": "approve",
      "outputs": [],
      "stateMutability": "nonpayable",
      "type": "function"
    },
    {
      "inputs": [
        {
          "internalType": "address",
          "name": "owner",
          "type": "address"
        }
      ],
      "name": "balanceOf",
      "outputs": [
        {
          "internalType": "uint256",
          "name": "",
          "type": "uint256"
        }
      ],
      "stateMutability": "view",
      "type": "function"
    },
    {
      "inputs": [
        {
          "internalType": "uint256",
          "name": "tokenId",
          "type": "uint256"
        }
      ],
      "name": "getApproved",
      "outputs": [
        {
          "internalType": "address",
          "name": "",
          "type": "address"
        }
      ],
      "stateMutability": "view",
      "type": "function"
    },
    {
      "inputs": [
        {
          "internalType": "uint256",
          "name": "tokenId",
          "type": "uint256"
        }
      ],
      "name": "getAttributes",
      "outputs": [
        {
          "components": [
            {
              "internalType": "enum GameItemNFT.Rarity",
              "name": "rarity",
              "type": "uint8"
            },
            {
              "internalType": "uint32",
              "name": "power",
              "type": "uint32"
            },
            {
              "internalType": "uint32",
              "name": "agility",
              "type": "uint32"
            }
          ],
          "internalType": "struct GameItemNFT.Attributes",
          "name": "",
          "type": "tuple"
        }
      ],
      "stateMutability": "view",
      "type": "function"
    },
    {
      "inputs": [
        {
          "internalType": "uint256",
          "name": "tokenId",
          "type": "uint256"
        }
      ],
      "name": "getRarity",
      "outputs": [
        {
          "internalType": "enum GameItemNFT.Rarity",
          "name": "",
          "type": "uint8"
        }
      ],
      "stateMutability": "view",
      "type": "function"
    },
    {
      "inputs": [
        {
          "internalType": "address",
          "name": "owner",
          "type": "address"
        },
        {
          "internalType": "address",
          "name": "operator",
          "type": "address"
        }
      ],
      "name": "isApprovedForAll",
      "outputs": [
        {
          "internalType": "bool",
          "name": "",
          "type": "bool"
        }
      ],
      "stateMutability": "view",
      "type": "function"
    },
    {
      "inputs": [
        {
          "internalType": "address",
          "name": "to",
          "type": "address"
        },
        {
          "internalType": "enum GameItemNFT.Rarity",
          "name": "rarity",
          "type": "uint8"
        },
        {
          "internalType": "uint32",
          "name": "power",
          "type": "uint32"
        },
        {
          "internalType": "uint32",
          "name": "agility",
          "type": "uint32"
        }
      ],
      "name": "mint",
      "outputs": [],
      "stateMutability": "nonpayable",
      "type": "function"
    },
    {
      "inputs": [],
      "name": "name",
      "outputs": [
        {
          "internalType": "string",
          "name": "",
          "type": "string"
        }
      ],
      "stateMutability": "view",
      "type": "function"
    },
    {
      "inputs": [],
      "name": "owner",
      "outputs": [
        {
          "internalType": "address",
          "name": "",
          "type": "address"
        }
      ],
      "stateMutability": "view",
      "type": "function"
    },
    {
      "inputs": [
        {
          "internalType": "uint256",
          "name": "tokenId",
          "type": "uint256"
        }
      ],
      "name": "ownerOf",
      "outputs": [
        {
          "internalType": "address",
          "name": "",
          "type": "address"
        }
      ],
      "stateMutability": "view",
      "type": "function"
    },
    {
      "inputs": [],
      "name": "pause",
      "outputs": [],
      "stateMutability": "nonpayable",
      "type": "function"
    },
    {
      "inputs": [],
      "name": "paused",
      "outputs": [
        {
          "internalType": "bool",
          "name": "",
          "type": "bool"
        }
      ],
      "stateMutability": "view",
      "type": "function"
    },
    {
      "inputs": [],
      "name": "renounceOwnership",
      "outputs": [],
      "stateMutability": "nonpayable",
      "type": "function"
    },
    {
      "inputs": [
        {
          "internalType": "address",
          "name": "from",
          "type": "address"
        },
        {
          "internalType": "address",
          "name": "to",
          "type": "address"
        },
        {
          "internalType": "uint256",
          "name": "tokenId",
          "type": "uint256"
        }
      ],
      "name": "safeTransferFrom",
      "outputs": [],
      "stateMutability": "nonpayable",
      "type": "function"
    },
    {
      "inputs": [
        {
          "internalType": "address",
          "name": "from",
          "type": "address"
        },
        {
          "internalType": "address",
          "name": "to",
          "type": "address"
        },
        {
          "internalType": "uint256",
          "name": "tokenId",
          "type": "uint256"
        },
        {
          "internalType": "bytes",
          "name": "data",
          "type": "bytes"
        }
      ],
      "name": "safeTransferFrom",
      "outputs": [],
      "stateMutability": "nonpayable",
      "type": "function"
    },
    {
      "inputs": [
        {
          "internalType": "address",
          "name": "operator",
          "type": "address"
        },
        {
          "internalType": "bool",
          "name": "approved",
          "type": "bool"
        }
      ],
      "name": "setApprovalForAll",
      "outputs": [],
      "stateMutability": "nonpayable",
      "type": "function"
    },
    {
      "inputs": [
        {
          "internalType": "bytes4",
          "name": "interfaceId",
          "type": "bytes4"
        }
      ],
      "name": "supportsInterface",
      "outputs": [
        {
          "internalType": "bool",
          "name": "",
          "type": "bool"
        }
      ],
      "stateMutability": "view",
      "type": "function"
    },
    {
      "inputs": [],
      "name": "symbol",
      "outputs": [
        {
          "internalType": "string",
          "name": "",
          "type": "string"
        }
      ],
      "stateMutability": "view",
      "type": "function"
    },
    {
      "inputs": [
        {
          "internalType": "uint256",
          "name": "index",
          "type": "uint256"
        }
      ],
      "name": "tokenByIndex",
      "outputs": [
        {
          "internalType": "uint256",
          "name": "",
          "type": "uint256"
        }
      ],
      "stateMutability": "view",
      "type": "function"
    },
    {
      "inputs": [
        {
          "internalType": "address",
          "name": "owner",
          "type": "address"
        },
        {
          "internalType": "uint256",
          "name": "index",
          "type": "uint256"
        }
      ],
      "name": "tokenOfOwnerByIndex",
      "outputs": [
        {
          "internalType": "uint256",
          "name": "",
          "type": "uint256"
        }
      ],
      "stateMutability": "view",
      "type": "function"
    },
    {
      "inputs": [
        {
          "internalType": "uint256",
          "name": "tokenId",
          "type": "uint256"
        }
      ],
      "name": "tokenURI",
      "outputs": [
        {
          "internalType": "string",
          "name": "",
          "type": "string"
        }
      ],
      "stateMutability": "view",
      "type": "function"
    },
    {
      "inputs": [],
      "name": "totalSupply",
      "outputs": [
        {
          "internalType": "uint256",
          "name": "",
          "type": "uint256"
        }
      ],
      "stateMutability": "view",
      "type": "function"
    },
    {
      "inputs": [
        {
          "internalType": "address",
          "name": "from",
          "type": "address"
        },
        {
          "internalType": "address",
          "name": "to",
          "type": "address"
        },
        {
          "internalType": "uint256",
          "name": "tokenId",
          "type": "uint256"
        }
      ],
      "name": "transferFrom",
      "outputs": [],
      "stateMutability": "nonpayable",
      "type": "function"
    },
    {
      "inputs": [
        {
          "internalType": "address",
          "name": "newOwner",
          "type": "address"
        }
      ],
      "name": "transferOwnership",
      "outputs": [],
      "stateMutability": "nonpayable",
      "type": "function"
    },
    {
      "inputs": [],
      "name": "unpause",
      "outputs": [],
      "stateMutability": "nonpayable",
      "type": "function"
    }
  ],
  "bytecode": "0x60806040526001600b553480156200001657600080fd5b50336040518060400160405280600881526020016747616d654974656d60c01b81525060405180604001604052806005815260200164474954454d60d81b8152508160009081620000689190620001b2565b506001620000778282620001b2565b5050506001600160a01b038116620000a957604051631e4fbdf760e01b81526000600482015260240160405180910390fd5b620000b481620000bb565b506200027e565b600a80546001600160a01b038381166001600160a01b0319831681179093556040519116919082907f8be0079c531659141344cd1fd0a4f28419497f9722a3daafe3b4186f6b6457e090600090a35050565b634e487b7160e01b600052604160045260246000fd5b600181811c908216806200013857607f821691505b6020821081036200015957634e487b7160e01b600052602260045260246000fd5b50919050565b601f821115620001ad57600081815260208120601f850160051c81016020861015620001885750805b601f850160051c820191505b81811015620001a95782815560010162000194565b5050505b505050565b81516001600160401b03811115620001ce57620001ce6200010d565b620001e681620001df845462000123565b846200015f565b602080601f8311600181146200021e5760008415620002055750858301515b600019600386901b1c1916600185901b178555620001a9565b600085815260208120601f198616915b828110156200024f578886015182559484019460019091019084016200022e565b50858210156200026e5787850151600019600388901b60f8161c191681555b5050505050600190811b01905550565b6119e2806200028e6000396000f3fe608060405234801561001057600080fd5b506004361061018e5760003560e01c80634f6ccce7116100de5780638da5cb5b11610097578063b88d4fde11610071578063b88d4fde14610346578063c87b56dd14610359578063e985e9c51461036c578063f2fde38b1461037f57600080fd5b80638da5cb5b1461031a57806395d89b411461032b578063a22cb4651461033357600080fd5b80634f6ccce7146102bf5780635c975abb146102d25780636352211e146102e457806370a08231146102f7578063715018a61461030a5780638456cb591461031257600080fd5b80632f745c591161014b5780633f4ba83a116101255780633f4ba83a1461026457806342842e0e1461026c5780634378a6e31461027f578063487586971461029f57600080fd5b80632f745c591461023557806332cb6b0c1461024857806333eff0341461025157600080fd5b806301ffc9a71461019357806306fdde03146101bb578063081812fc146101d0578063095ea7b3146101fb57806318160ddd1461021057806323b872dd14610222575b600080fd5b6101a66101a13660046114cb565b610392565b60405190151581526020015b60405180910390f35b6101c36103bd565b6040516101b29190611538565b6101e36101de36600461154b565b61044f565b6040516001600160a01b0390911681526020016101b2565b61020e610209366004611580565b610478565b005b6008545b6040519081526020016101b2565b61020e6102303660046115aa565b610487565b610214610243366004611580565b610517565b61021461271081565b61020e61025f3660046115fa565b61057c565b61020e6106cc565b61020e61027a3660046115aa565b6106de565b61029261028d36600461154b565b6106fe565b6040516101b2919061168c565b6102b26102ad36600461154b565b610792565b6040516101b291906116c5565b6102146102cd36600461154b565b6107b3565b600a54600160a01b900460ff166101a6565b6101e36102f236600461154b565b61080c565b6102146103053660046116d3565b610817565b61020e61085f565b61020e610871565b600a546001600160a01b03166101e3565b6101c3610881565b61020e6103413660046116ee565b610890565b61020e610354366004611740565b61089b565b6101c361036736600461154b565b6108b3565b6101a661037a36600461181c565b610928565b61020e61038d3660046116d3565b610956565b60006001600160e01b0319821663780e9d6360e01b14806103b757506103b782610994565b92915050565b6060600080546103cc9061184f565b80601f01602080910402602001604051908101604052809291908181526020018280546103f89061184f565b80156104455780601f1061041a57610100808354040283529160200191610445565b820191906000526020600020905b81548152906001019060200180831161042857829003601f168201915b5050505050905090565b600061045a826109e4565b506000828152600460205260409020546001600160a01b03166103b7565b610483828233610a1d565b5050565b6001600160a01b0382166104b657604051633250574960e11b8152600060048201526024015b60405180910390fd5b60006104c3838333610a2a565b9050836001600160a01b0316816001600160a01b031614610511576040516364283d7b60e01b81526001600160a01b03808616600483015260248201849052821660448201526064016104ad565b50505050565b600061052283610817565b82106105535760405163295f44f760e21b81526001600160a01b0384166004820152602481018390526044016104ad565b506001600160a01b03919091166000908152600660209081526040808320938352929052205490565b610584610aff565b61058c610b2c565b612710600b5411156105b15760405163d05cb60960e01b815260040160405180910390fd5b600b805490819060006105c38361189f565b919050555060405180606001604052808560038111156105e5576105e5611654565b815263ffffffff8086166020808401919091529085166040928301526000848152600c9091522081518154829060ff1916600183600381111561062a5761062a611654565b02179055506020820151815460409093015168ffffffffffffffff001990931661010063ffffffff9283160268ffffffff000000000019161765010000000000919093160291909117905561067f8582610b57565b80856001600160a01b03167f8c6d545de154345929bcca9d16c0e812fb3d421efb0afbbfd306c6bbc9a8e6cb8686866040516106bd939291906118b8565b60405180910390a35050505050565b6106d4610aff565b6106dc610b71565b565b6106f98383836040518060200160405280600081525061089b565b505050565b604080516060810182526000808252602082018190529181019190915261072482610bc6565b6000828152600c6020526040908190208151606081019092528054829060ff16600381111561075557610755611654565b600381111561076657610766611654565b8152905463ffffffff610100820481166020840152650100000000009091041660409091015292915050565b600061079d82610bc6565b506000908152600c602052604090205460ff1690565b60006107be60085490565b82106107e75760405163295f44f760e21b815260006004820152602481018390526044016104ad565b600882815481106107fa576107fa6118e4565b90600052602060002001549050919050565b60006103b7826109e4565b60006001600160a01b038216610843576040516322718ad960e21b8152600060048201526024016104ad565b506001600160a01b031660009081526003602052604090205490565b610867610aff565b6106dc6000610bfe565b610879610aff565b6106dc610c50565b6060600180546103cc9061184f565b610483338383610c93565b6108a6848484610487565b6105113385858585610d32565b60606108be826109e4565b5060006108d660408051602081019091526000815290565b905060008151116108f65760405180602001604052806000815250610921565b8061090084610e5d565b6040516020016109119291906118fa565b6040516020818303038152906040525b9392505050565b6001600160a01b03918216600090815260056020908152604080832093909416825291909152205460ff1690565b61095e610aff565b6001600160a01b03811661098857604051631e4fbdf760e01b8152600060048201526024016104ad565b61099181610bfe565b50565b60006001600160e01b031982166380ac58cd60e01b14806109c557506001600160e01b03198216635b5e139f60e01b145b806103b757506301ffc9a760e01b6001600160e01b03198316146103b7565b6000818152600260205260408120546001600160a01b0316806103b757604051637e27328960e01b8152600481018490526024016104ad565b6106f98383836001610ef0565b600080610a38858585610ff6565b90506001600160a01b038116610a9557610a9084600880546000838152600960205260408120829055600182018355919091527ff3f7a9fe364faab93b216da50a3214154f22a0a2b415b23a84c8169e8b636ee30155565b610ab8565b846001600160a01b0316816001600160a01b031614610ab857610ab881856110ef565b6001600160a01b038516610ad457610acf84611170565b610af7565b846001600160a01b0316816001600160a01b031614610af757610af7858561121f565b949350505050565b600a546001600160a01b031633146106dc5760405163118cdaa760e01b81523360048201526024016104ad565b600a54600160a01b900460ff16156106dc5760405163d93c066560e01b815260040160405180910390fd5b61048382826040518060200160405280600081525061126f565b610b79611287565b600a805460ff60a01b191690557f5db9ee0a495bf2e6ff9c91a7834c1ba4fdd244a5e8aa4e537bd38aeae4b073aa335b6040516001600160a01b03909116815260200160405180910390a1565b6000818152600260205260409020546001600160a01b03166109915760405163c927e5bf60e01b8152600481018290526024016104ad565b600a80546001600160a01b038381166001600160a01b0319831681179093556040519116919082907f8be0079c531659141344cd1fd0a4f28419497f9722a3daafe3b4186f6b6457e090600090a35050565b610c58610b2c565b600a805460ff60a01b1916600160a01b1790557f62e78cea01bee320cd4e420270b5ea74000d11b0c9f74754ebdbfc544b05a258610ba93390565b6001600160a01b038216610cc557604051630b61174360e31b81526001600160a01b03831660048201526024016104ad565b6001600160a01b03838116600081815260056020908152604080832094871680845294825291829020805460ff191686151590811790915591519182527f17307eab39ab6107e8899845ad3d59bd9653f200f220920489ca2b5937696c31910160405180910390a3505050565b6001600160a01b0383163b15610e5657604051630a85bd0160e11b81526001600160a01b0384169063150b7a0290610d74908890889087908790600401611929565b6020604051808303816000875af1925050508015610daf575060408051601f3d908101601f19168201909252610dac91810190611966565b60015b610e18573d808015610ddd576040519150601f19603f3d011682016040523d82523d6000602084013e610de2565b606091505b508051600003610e1057604051633250574960e11b81526001600160a01b03851660048201526024016104ad565b805160208201fd5b6001600160e01b03198116630a85bd0160e11b14610e5457604051633250574960e11b81526001600160a01b03851660048201526024016104ad565b505b5050505050565b60606000610e6a836112b1565b600101905060008167ffffffffffffffff811115610e8a57610e8a61172a565b6040519080825280601f01601f191660200182016040528015610eb4576020820181803683370190505b5090508181016020015b600019016f181899199a1a9b1b9c1cb0b131b232b360811b600a86061a8153600a8504945084610ebe57509392505050565b8080610f0457506001600160a01b03821615155b15610fc6576000610f14846109e4565b90506001600160a01b03831615801590610f405750826001600160a01b0316816001600160a01b031614155b8015610f535750610f518184610928565b155b15610f7c5760405163a9fbf51f60e01b81526001600160a01b03841660048201526024016104ad565b8115610fc45783856001600160a01b0316826001600160a01b03167f8c5be1e5ebec7d5bd14f71427d1e84f3dd0314c0f7b2291e5b200ac8c7c3b92560405160405180910390a45b505b5050600090815260046020526040902080546001600160a01b0319166001600160a01b0392909216919091179055565b6000828152600260205260408120546001600160a01b039081169083161561102357611023818486611389565b6001600160a01b0381161561106157611040600085600080610ef0565b6001600160a01b038116600090815260036020526040902080546000190190555b6001600160a01b03851615611090576001600160a01b0385166000908152600360205260409020805460010190555b60008481526002602052604080822080546001600160a01b0319166001600160a01b0389811691821790925591518793918516917fddf252ad1be2c89b69c2b068fc378daa952ba7f163c4a11628f55a4df523b3ef91a4949350505050565b60006110fa83610817565b6000838152600760209081526040808320546001600160a01b038816845260069092529091209192509081831461115157600083815260208281526040808320548584528184208190558352600790915290208290555b6000938452600760209081526040808620869055938552525081205550565b60085460009061118290600190611983565b600083815260096020526040812054600880549394509092849081106111aa576111aa6118e4565b9060005260206000200154905080600883815481106111cb576111cb6118e4565b600091825260208083209091019290925582815260099091526040808220849055858252812055600880548061120357611203611996565b6001900381819060005260206000200160009055905550505050565b6000600161122c84610817565b6112369190611983565b6001600160a01b039093166000908152600660209081526040808320868452825280832085905593825260079052919091209190915550565b61127983836113ed565b6106f9336000858585610d32565b600a54600160a01b900460ff166106dc57604051638dfc202b60e01b815260040160405180910390fd5b60008072184f03e93ff9f4daa797ed6e38ed64bf6a1f0160401b83106112f05772184f03e93ff9f4daa797ed6e38ed64bf6a1f0160401b830492506040015b6d04ee2d6d415b85acef8100000000831061131c576d04ee2d6d415b85acef8100000000830492506020015b662386f26fc10000831061133a57662386f26fc10000830492506010015b6305f5e1008310611352576305f5e100830492506008015b612710831061136657612710830492506004015b60648310611378576064830492506002015b600a83106103b75760010192915050565b611394838383611452565b6106f9576001600160a01b0383166113c257604051637e27328960e01b8152600481018290526024016104ad565b60405163177e802f60e01b81526001600160a01b0383166004820152602481018290526044016104ad565b6001600160a01b03821661141757604051633250574960e11b8152600060048201526024016104ad565b600061142583836000610a2a565b90506001600160a01b038116156106f9576040516339e3563760e11b8152600060048201526024016104ad565b60006001600160a01b03831615801590610af75750826001600160a01b0316846001600160a01b0316148061148c575061148c8484610928565b80610af75750506000908152600460205260409020546001600160a01b03908116911614919050565b6001600160e01b03198116811461099157600080fd5b6000602082840312156114dd57600080fd5b8135610921816114b5565b60005b838110156115035781810151838201526020016114eb565b50506000910152565b600081518084526115248160208601602086016114e8565b601f01601f19169290920160200192915050565b602081526000610921602083018461150c565b60006020828403121561155d57600080fd5b5035919050565b80356001600160a01b038116811461157b57600080fd5b919050565b6000806040838503121561159357600080fd5b61159c83611564565b946020939093013593505050565b6000806000606084860312156115bf57600080fd5b6115c884611564565b92506115d660208501611564565b9150604084013590509250925092565b803563ffffffff8116811461157b57600080fd5b6000806000806080858703121561161057600080fd5b61161985611564565b935060208501356004811061162d57600080fd5b925061163b604086016115e6565b9150611649606086016115e6565b905092959194509250565b634e487b7160e01b600052602160045260246000fd5b6004811061168857634e487b7160e01b600052602160045260246000fd5b9052565b600060608201905061169f82845161166a565b602083015163ffffffff8082166020850152806040860151166040850152505092915050565b602081016103b7828461166a565b6000602082840312156116e557600080fd5b61092182611564565b6000806040838503121561170157600080fd5b61170a83611564565b91506020830135801515811461171f57600080fd5b809150509250929050565b634e487b7160e01b600052604160045260246000fd5b6000806000806080858703121561175657600080fd5b61175f85611564565b935061176d60208601611564565b925060408501359150606085013567ffffffffffffffff8082111561179157600080fd5b818701915087601f8301126117a557600080fd5b8135818111156117b7576117b761172a565b604051601f8201601f19908116603f011681019083821181831017156117df576117df61172a565b816040528281528a60208487010111156117f857600080fd5b82602086016020830137600060208483010152809550505050505092959194509250565b6000806040838503121561182f57600080fd5b61183883611564565b915061184660208401611564565b90509250929050565b600181811c9082168061186357607f821691505b60208210810361188357634e487b7160e01b600052602260045260246000fd5b50919050565b634e487b7160e01b600052601160045260246000fd5b6000600182016118b1576118b1611889565b5060010190565b606081016118c6828661166a565b63ffffffff8085166020840152808416604084015250949350505050565b634e487b7160e01b600052603260045260246000fd5b6000835161190c8184602088016114e8565b8351908301906119208183602088016114e8565b01949350505050565b6001600160a01b038581168252841660208201526040810183905260806060820181905260009061195c9083018461150c565b9695505050505050565b60006020828403121561197857600080fd5b8151610921816114b5565b818103818111156103b7576103b7611889565b634e487b7160e01b600052603160045260246000fdfea2646970667358221220df8c34d4505ae86ff098c876985b42fcdc0b82426607b70ada5e401e30cb57af64736f6c63430008140033",
  "linkReferences": {},
  "deployedLinkReferences": {}
}